{"abi":[{"type":"function","name":"deploy_admin_operator","inputs":[{"name":"_tokenId","type":"uint256","internalType":"uint256"}],"outputs":[{"name":"","type":"address","internalType":"address"}],"stateMutability":"nonpayable"},{"type":"function","name":"initialize","inputs":[],"outputs":[],"stateMutability":"nonpayable"},{"type":"event","name":"GenericFactoryProxyCreated","inputs":[{"name":"proxy","type":"address","indexed":true,"internalType":"address"},{"name":"upgradeable","type":"bool","indexed":false,"internalType":"bool"},{"name":"implementation","type":"address","indexed":false,"internalType":"address"},{"name":"trailingData","type":"bytes","indexed":false,"internalType":"bytes"}],"anonymous":false},{"type":"event","name":"GenericFactorySetImplementation","inputs":[{"name":"newImplementation","type":"address","indexed":true,"internalType":"address"}],"anonymous":false},{"type":"error","name":"AccessControlUnauthorizedAccount","inputs":[{"name":"_account","type":"address","internalType":"address"},{"name":"_role","type":"bytes32","internalType":"bytes32"}]},{"type":"error","name":"GenericFactoryBadAddress","inputs":[]},{"type":"error","name":"GenericFactoryImplementation","inputs":[]},{"type":"error","name":"MetaProxyDeployerDeploymentFailed","inputs":[]}],"bytecode":{"object":"0x6080604052348015600e575f5ffd5b5061157a8061001c5f395ff3fe608060405234801561000f575f5ffd5b5060043610610034575f3560e01c80638129fc1c14610038578063d8aa227c14610042575b5f5ffd5b610040610072565b005b61005c600480360381019061005791906109cd565b610105565b6040516100699190610a37565b60405180910390f35b73__$ba1fdb658fe2035b03f99e993e777d9697$__63c4d66de8336040518263ffffffff1660e01b81526004016100a99190610a5f565b5f6040518083038186803b1580156100bf575f5ffd5b505af41580156100d1573d5f5f3e3d5ffd5b505050506101036040516100e49061097d565b604051809103905ff0801580156100fd573d5f5f3e3d5ffd5b5061021b565b565b5f5f61010f610339565b90505f73ffffffffffffffffffffffffffffffffffffffff16816001015f8581526020019081526020015f205f9054906101000a900473ffffffffffffffffffffffffffffffffffffffff1673ffffffffffffffffffffffffffffffffffffffff16036101e05761018f5f5f60405180602001604052805f815250610365565b816001015f8581526020019081526020015f205f6101000a81548173ffffffffffffffffffffffffffffffffffffffff021916908373ffffffffffffffffffffffffffffffffffffffff1602179055505b806001015f8481526020019081526020015f205f9054906101000a900473ffffffffffffffffffffffffffffffffffffffff16915050919050565b610223610706565b61024d7fbd7ed46b4cf94f664440ccda1e49cd974a325f1ef7725cea256a6c95ace1e8a933610744565b5f6102566107f1565b90505f8273ffffffffffffffffffffffffffffffffffffffff163b036102a8576040517f443d2fb200000000000000000000000000000000000000000000000000000000815260040160405180910390fd5b81816002015f6101000a81548173ffffffffffffffffffffffffffffffffffffffff021916908373ffffffffffffffffffffffffffffffffffffffff1602179055508173ffffffffffffffffffffffffffffffffffffffff167f73b08453e10d76665416aa82ad789cc305487693817cef8fec5f298e504221a560405160405180910390a25061033661081d565b50565b5f5f7f4650e9f5ac58e604b15df2d6e54ac66a5ac75d6f88b8161b51200bea301db04e90508091505090565b5f61036e610706565b5f6103776107f1565b90505f816002015f9054906101000a900473ffffffffffffffffffffffffffffffffffffffff1690505f73ffffffffffffffffffffffffffffffffffffffff168673ffffffffffffffffffffffffffffffffffffffff16036103d7578095505b5f73ffffffffffffffffffffffffffffffffffffffff168673ffffffffffffffffffffffffffffffffffffffff16148061043d57508073ffffffffffffffffffffffffffffffffffffffff168673ffffffffffffffffffffffffffffffffffffffff1614155b15610474576040517fdc2c511200000000000000000000000000000000000000000000000000000000815260040160405180910390fd5b5f5f60e01b8560405160200161048b929190610b15565b60405160208183030381529060405290505f86156104db57816040516104b090610989565b6104ba9190610b94565b604051809103905ff0801580156104d3573d5f5f3e3d5ffd5b5090506104e8565b6104e58883610847565b90505b604051806060016040528088151581526020018973ffffffffffffffffffffffffffffffffffffffff16815260200187815250846003015f8373ffffffffffffffffffffffffffffffffffffffff1673ffffffffffffffffffffffffffffffffffffffff1681526020019081526020015f205f820151815f015f6101000a81548160ff0219169083151502179055506020820151815f0160016101000a81548173ffffffffffffffffffffffffffffffffffffffff021916908373ffffffffffffffffffffffffffffffffffffffff16021790555060408201518160010190816105d29190610dde565b509050508360040181908060018154018082558091505060019003905f5260205f20015f9091909190916101000a81548173ffffffffffffffffffffffffffffffffffffffff021916908373ffffffffffffffffffffffffffffffffffffffff1602179055508073ffffffffffffffffffffffffffffffffffffffff1663c4d66de8336040518263ffffffff1660e01b81526004016106719190610a37565b5f604051808303815f87803b158015610688575f5ffd5b505af115801561069a573d5f5f3e3d5ffd5b505050508073ffffffffffffffffffffffffffffffffffffffff167f7ba5ee26986895a9927927d9458bdcbecb2bfcb97c51c45df0b233452587b0f2888a896040516106e893929190610ec7565b60405180910390a2809450505050506106ff61081d565b9392505050565b5f7f67fd1025bc99e7138c9dda629304adb94cabc0aa1ca266d67f19ec650ecb0f869050805c1561073d576343a0d0675f5260045ffd5b6001815d50565b5f61074d610951565b9050805f015f8373ffffffffffffffffffffffffffffffffffffffff1673ffffffffffffffffffffffffffffffffffffffff1681526020019081526020015f205f8481526020019081526020015f205f9054906101000a900460ff166107ec5781836040517fe2517d3f0000000000000000000000000000000000000000000000000000000081526004016107e3929190610f1b565b60405180910390fd5b505050565b5f5f7f46fcdd478f511f09cae89301f0cdd945d9d0826158a0268d8b430ecdc091e83b90508091505090565b5f7f67fd1025bc99e7138c9dda629304adb94cabc0aa1ca266d67f19ec650ecb0f8690505f815d50565b5f5f6040518060400160405280602081526020017f600b380380600b3d393df3363d3d373d3d3d3d60368038038091363936013d73815250846040518060400160405280600d81526020017f5af43d3d93803e603457fd5bf300000000000000000000000000000000000000815250856040516020016108ca9493929190610f87565b60405160208183030381529060405290508051602082015ff091505f73ffffffffffffffffffffffffffffffffffffffff168273ffffffffffffffffffffffffffffffffffffffff160361094a576040517f6126ea7d00000000000000000000000000000000000000000000000000000000815260040160405180910390fd5b5092915050565b5f5f7f7cf35a5f37b26ee930981bfb4d9ebeb5a6cbffb779863ed4ec738fd938816bbe90508091505090565b602f80610fc983390190565b61057680610ff883390190565b5f5ffd5b5f819050919050565b6109ac8161099a565b81146109b6575f5ffd5b50565b5f813590506109c7816109a3565b92915050565b5f602082840312156109e2576109e1610996565b5b5f6109ef848285016109b9565b91505092915050565b5f73ffffffffffffffffffffffffffffffffffffffff82169050919050565b5f610a21826109f8565b9050919050565b610a3181610a17565b82525050565b5f602082019050610a4a5f830184610a28565b92915050565b610a5981610a17565b82525050565b5f602082019050610a725f830184610a50565b92915050565b5f7fffffffff0000000000000000000000000000000000000000000000000000000082169050919050565b5f819050919050565b610abd610ab882610a78565b610aa3565b82525050565b5f81519050919050565b5f81905092915050565b8281835e5f83830152505050565b5f610aef82610ac3565b610af98185610acd565b9350610b09818560208601610ad7565b80840191505092915050565b5f610b208285610aac565b600482019150610b308284610ae5565b91508190509392505050565b5f82825260208201905092915050565b5f601f19601f8301169050919050565b5f610b6682610ac3565b610b708185610b3c565b9350610b80818560208601610ad7565b610b8981610b4c565b840191505092915050565b5f6020820190508181035f830152610bac8184610b5c565b905092915050565b7f4e487b71000000000000000000000000000000000000000000000000000000005f52604160045260245ffd5b7f4e487b71000000000000000000000000000000000000000000000000000000005f52602260045260245ffd5b5f6002820490506001821680610c2557607f821691505b602082108103610c3857610c37610be1565b5b50919050565b5f819050815f5260205f209050919050565b5f6020601f8301049050919050565b5f82821b905092915050565b5f60088302610c9a7fffffffffffffffffffffffffffffffffffffffffffffffffffffffffffffffff82610c5f565b610ca48683610c5f565b95508019841693508086168417925050509392505050565b5f819050919050565b5f610cdf610cda610cd58461099a565b610cbc565b61099a565b9050919050565b5f819050919050565b610cf883610cc5565b610d0c610d0482610ce6565b848454610c6b565b825550505050565b5f5f905090565b610d23610d14565b610d2e818484610cef565b505050565b5b81811015610d5157610d465f82610d1b565b600181019050610d34565b5050565b601f821115610d9657610d6781610c3e565b610d7084610c50565b81016020851015610d7f578190505b610d93610d8b85610c50565b830182610d33565b50505b505050565b5f82821c905092915050565b5f610db65f1984600802610d9b565b1980831691505092915050565b5f610dce8383610da7565b9150826002028217905092915050565b610de782610ac3565b67ffffffffffffffff811115610e0057610dff610bb4565b5b610e0a8254610c0e565b610e15828285610d55565b5f60209050601f831160018114610e46575f8415610e34578287015190505b610e3e8582610dc3565b865550610ea5565b601f198416610e5486610c3e565b5f5b82811015610e7b57848901518255600182019150602085019450602081019050610e56565b86831015610e985784890151610e94601f891682610da7565b8355505b6001600288020188555050505b505050505050565b5f8115159050919050565b610ec181610ead565b82525050565b5f606082019050610eda5f830186610eb8565b610ee76020830185610a28565b8181036040830152610ef98184610b5c565b9050949350505050565b5f819050919050565b610f1581610f03565b82525050565b5f604082019050610f2e5f830185610a28565b610f3b6020830184610f0c565b9392505050565b5f8160601b9050919050565b5f610f5882610f42565b9050919050565b5f610f6982610f4e565b9050919050565b610f81610f7c82610a17565b610f5f565b82525050565b5f610f928287610ae5565b9150610f9e8286610f70565b601482019150610fae8285610ae5565b9150610fba8284610ae5565b91508190509594505050505056fe6080604052348015600e575f5ffd5b50601580601a5f395ff3fe60806040525f5ffdfea164736f6c634300081e000a610140604052348015610010575f5ffd5b5060405161057638038061057683398181016040528101906100329190610290565b7f6bf6eaff5e9af8fbccb949f4c38cc016936f8775363ccf4224db160365785d5260405160405180910390a16080815111156100a3576040517f08c379a000000000000000000000000000000000000000000000000000000000815260040161009a90610331565b60405180910390fd5b3373ffffffffffffffffffffffffffffffffffffffff1660808173ffffffffffffffffffffffffffffffffffffffff1681525050337fa3f0ad74e5423aebfd80d3ef4346578335a9a72aeaee59ff6cb3582b35133d5055805160a08181525050608081528080602001905181019061011b9190610382565b806101209081525081610100908152508260e0908152508360c09081525050505050506103e6565b5f604051905090565b5f5ffd5b5f5ffd5b5f5ffd5b5f5ffd5b5f601f19601f8301169050919050565b7f4e487b71000000000000000000000000000000000000000000000000000000005f52604160045260245ffd5b6101a28261015c565b810181811067ffffffffffffffff821117156101c1576101c061016c565b5b80604052505050565b5f6101d3610143565b90506101df8282610199565b919050565b5f67ffffffffffffffff8211156101fe576101fd61016c565b5b6102078261015c565b9050602081019050919050565b8281835e5f83830152505050565b5f61023461022f846101e4565b6101ca565b9050828152602081018484840111156102505761024f610158565b5b61025b848285610214565b509392505050565b5f82601f83011261027757610276610154565b5b8151610287848260208601610222565b91505092915050565b5f602082840312156102a5576102a461014c565b5b5f82015167ffffffffffffffff8111156102c2576102c1610150565b5b6102ce84828501610263565b91505092915050565b5f82825260208201905092915050565b7f747261696c696e67206461746120746f6f206c6f6e67000000000000000000005f82015250565b5f61031b6016836102d7565b9150610326826102e7565b602082019050919050565b5f6020820190508181035f8301526103488161030f565b9050919050565b5f819050919050565b6103618161034f565b811461036b575f5ffd5b50565b5f8151905061037c81610358565b92915050565b5f5f5f5f6080858703121561039a5761039961014c565b5b5f6103a78782880161036e565b94505060206103b88782880161036e565b93505060406103c98782880161036e565b92505060606103da8782880161036e565b91505092959194509250565b60805160a05160c05160e051610100516101205161014f6104275f395f60bb01525f609701525f607301525f604f01525f602b01525f6007015261014f5ff3fe60806040525f7f000000000000000000000000000000000000000000000000000000000000000090505f7f000000000000000000000000000000000000000000000000000000000000000090505f7f000000000000000000000000000000000000000000000000000000000000000090505f7f000000000000000000000000000000000000000000000000000000000000000090505f7f000000000000000000000000000000000000000000000000000000000000000090505f7f000000000000000000000000000000000000000000000000000000000000000090507f5c60da1b000000000000000000000000000000000000000000000000000000005f5260205f60045f895afa5f51365f5f378536528436602001528336604001528236606001525f5f3689015f845af491503d5f5f3e815f811461013e573d5ff35b3d5ffdfea164736f6c634300081e000aa164736f6c634300081e000a","linkReferences":{"lib/compose-extensions/src/GenericFactory/LibGenericFactory.sol":{"LibGenericFactory":[{"start":144,"length":20}]}}},"methodIdentifiers":{"deploy_admin_operator(uint256)":"d8aa227c","initialize()":"8129fc1c"},"id":40}