{"abi":[{"type":"function","name":"initialize","inputs":[{"name":"creator","type":"address","internalType":"address"}],"outputs":[],"stateMutability":"nonpayable"},{"type":"function","name":"onERC1155BatchReceived","inputs":[{"name":"_operator","type":"address","internalType":"address"},{"name":"_from","type":"address","internalType":"address"},{"name":"_ids","type":"uint256[]","internalType":"uint256[]"},{"name":"_values","type":"uint256[]","internalType":"uint256[]"},{"name":"_data","type":"bytes","internalType":"bytes"}],"outputs":[{"name":"","type":"bytes4","internalType":"bytes4"}],"stateMutability":"nonpayable"},{"type":"function","name":"onERC1155Received","inputs":[{"name":"_operator","type":"address","internalType":"address"},{"name":"_from","type":"address","internalType":"address"},{"name":"_id","type":"uint256","internalType":"uint256"},{"name":"_value","type":"uint256","internalType":"uint256"},{"name":"_data","type":"bytes","internalType":"bytes"}],"outputs":[{"name":"","type":"bytes4","internalType":"bytes4"}],"stateMutability":"nonpayable"}],"bytecode":{"object":"0x6080604052348015600e575f5ffd5b5061041d8061001c5f395ff3fe608060405234801561000f575f5ffd5b506004361061003f575f3560e01c8063bc197c8114610043578063c4d66de814610073578063f23a6e611461008f575b5f5ffd5b61005d600480360381019061005891906101f2565b6100bf565b60405161006a9190610303565b60405180910390f35b61008d6004803603810190610088919061031c565b6100cc565b005b6100a960048036038101906100a4919061037a565b6100cf565b6040516100b69190610303565b60405180910390f35b5f98975050505050505050565b50565b5f9695505050505050565b5f5ffd5b5f5ffd5b5f73ffffffffffffffffffffffffffffffffffffffff82169050919050565b5f61010b826100e2565b9050919050565b61011b81610101565b8114610125575f5ffd5b50565b5f8135905061013681610112565b92915050565b5f5ffd5b5f5ffd5b5f5ffd5b5f5f83601f84011261015d5761015c61013c565b5b8235905067ffffffffffffffff81111561017a57610179610140565b5b60208301915083602082028301111561019657610195610144565b5b9250929050565b5f5f83601f8401126101b2576101b161013c565b5b8235905067ffffffffffffffff8111156101cf576101ce610140565b5b6020830191508360018202830111156101eb576101ea610144565b5b9250929050565b5f5f5f5f5f5f5f5f60a0898b03121561020e5761020d6100da565b5b5f61021b8b828c01610128565b985050602061022c8b828c01610128565b975050604089013567ffffffffffffffff81111561024d5761024c6100de565b5b6102598b828c01610148565b9650965050606089013567ffffffffffffffff81111561027c5761027b6100de565b5b6102888b828c01610148565b9450945050608089013567ffffffffffffffff8111156102ab576102aa6100de565b5b6102b78b828c0161019d565b92509250509295985092959890939650565b5f7fffffffff0000000000000000000000000000000000000000000000000000000082169050919050565b6102fd816102c9565b82525050565b5f6020820190506103165f8301846102f4565b92915050565b5f60208284031215610331576103306100da565b5b5f61033e84828501610128565b91505092915050565b5f819050919050565b61035981610347565b8114610363575f5ffd5b50565b5f8135905061037481610350565b92915050565b5f5f5f5f5f5f60a08789031215610394576103936100da565b5b5f6103a189828a01610128565b96505060206103b289828a01610128565b95505060406103c389828a01610366565b94505060606103d489828a01610366565b935050608087013567ffffffffffffffff8111156103f5576103f46100de565b5b61040189828a0161019d565b9250925050929550929550929556fea164736f6c634300081e000a","linkReferences":{}},"methodIdentifiers":{"initialize(address)":"c4d66de8","onERC1155BatchReceived(address,address,uint256[],uint256[],bytes)":"bc197c81","onERC1155Received(address,address,uint256,uint256,bytes)":"f23a6e61"},"id":37}